:100000006FA0403D1300000013000000130000002B
:100010001300000013000000130000001300000094
:100020001300000013000000130000001300000084
:08003000130000007300100032
:100038000000000000000000328C0000428C00002C
:10004800000000001AA300000000000000000000EB
:100058001CA300001EA30000000000000000000018
:1000680020A300000000000022A300000000000000
:1000780024A3000026A3000028A300002AA3000050
:100088002CA300002EA30000BC82000030830000D7
:10009800A4830000188400008C8400003AA30000A8
:1000A8003CA300003EA3000040A3000042A30000C0
:1000B80044A3000046A3000048A300004AA3000090
:1000C8004CA300004EA3000050A3000000850000D0
:1000D80054A30000C486000058A300005AA30000DF
:1000E80044870000BC8700003C88000062A3000031
:1000F80064A3000066A3000068A300006AA30000D0
:100108006CA300000C7E0000907E0000147F0000AD
:10011800D885000076A3000078A300007AA3000029
:10012800BA8A00007EA3000080A3000082A300001A
:1001380084A3000086A30000BC8800008AA30000F6
:10014800987F00001C8000003C890000B4890000F2
:1001580094A3000096A3000098A300009AA30000AF
:100168009CA300009EA30000A0A30000A2A300007F
:10017800A4A30000A6A30000A8A3000056C800007E
:10018800ACA30000AEA300002C8200009E800000FB
:1001980022810000AC810000B8A300003A8B000067
:1001A800BCA30000BEA30000C0A30000BA8B0000DF
:1001B800C4A30000C6A30000C8A30000CAA300008F
:1001C800CCA30000CEA30000D0A30000D2A300005F
:1001D8000000000000000000000000000000000017
:1001E8000000000000000000000000000000000007
:0801F8000000000000000000FF
:100200003D432A876373C3029377F700BDEFADE5E3
:10021000937606FF3D8ABA960CC34CC30CC74CC7F5
:100220004107E36BD7FE11E28280B306C3408A0622
:100230009702000096966780A6002307B700A306E2
:10024000B7002306B700A305B7002305B700A30432
:10025000B7002304B700A303B7002303B700A3022A
:10026000B7002302B700A301B7002301B700A30022
:10027000B7002300B700828093F5F50F93968500B1
:10028000D58D93960501D58D61B79396270097027A
:10029000000096968682E78086FA9680C1171D8FA9
:1002A0003E96E374C3F8A5B7797106D622D4001838
:1002B000232EA4FC8327C4FDB18393F7F70FBD8BD6
:1002C000A307F4FE8327C4FDA18393F7F70FBD8B2B
:1002D0002307F4FE0347F4FEB70700200A079387BD
:1002E0000731BA979C430347E4FE91460546BA8519
:1002F0003E85EFA0403F0347F4FEB70700200A0702
:1003000093870731BA979C4385453E85EFA06039B6
:1003100001000347F4FEB70700200A07938707315F
:10032000BA979C4389453E85EFA06060AA87F5D3C4
:100330000347F4FEB70700200A0793870731BA97EF
:100340009C43FC478346F4FE1387818D3697034711
:100350000700B3D7E700C207C1833E85B2502254DD
:1003600045618280797106D622D40018232EA4FC20
:10037000AE87A30DF4FC0347B4FD13060005F56733
:10038000938587783A85EF60D031232404FEA30754
:1003900004FE05A00325C4FD013FAA873E878327ED
:1003A00084FEBA972324F4FE8347F4FE8507A3074F
:1003B000F4FE0347F4FE8347B4FDE36DF7FC834787
:1003C000B4FD032784FEB357F7022324F4FE8327EA
:1003D00084FEC207C1833E85B250225445618280AB
:1003E0005D7186C6A2C48008232EA4FA232CB4FA19
:1003F000232604FC232804FC232A04FC232C04FCCD
:10040000232E04FC232004FE232204FE232404FEC6
:100410008327C4FBB18393F7F70FBD8BA307F4FECB
:100420008327C4FB93F7F70F8146014681453E853C
:10043000EF00701D8347F4FE99E785451305002002
:10044000EFA0F05519A80347F4FE85476317F7009E
:10045000854513050040EFA090540145EFA0101F03
:100460000347F4FEB70700200A0793870731BA97BE
:100470009C433E85EF90B07E232604FC232804FC99
:10048000232A04FCB7070E00232CF4FC232E04FCC3
:1004900085472300F4FE0347F4FEB70700200A0750
:1004A00093870731BA979C431307C4FCBA853E85EE
:1004B000EFA0E0000347F4FEB70700200A07938788
:1004C0000731BA979C4385453E85EFA0600F0347EF
:1004D000F4FEB70700200A0793870731BA979C43B9
:1004E00081453E85EFA040480347F4FEB707002052
:1004F0000A0793870731BA979C433E85EFA02010E7
:1005000001000347F4FEB70700200A07938707316D
:10051000BA979C433E85EFA0A010AA87FDF303473E
:10052000F4FEB70700200A0793870731BA979C4368
:100530003E85EFA0E01101000347F4FEB70700205D
:100540000A0793870731BA979C433E85EFA0601254
:10055000AA87FDF38346F4FE832784FB13F7F70F86
:100560009387818DB6972380E7000100B64026442B
:1005700061618280011122CE00102326A4FE232473
:10058000B4FE37F600E04C4237F600E0F9994CC271
:100590000326C4FEB2860147032684FEB2870148C3
:1005A00037F600E03305F702B305D802AA95338584
:1005B000F602B3B3F6022A83B3877500BE832328FD
:1005C0006600232A7600B7F700E09843B7F700E00B
:1005D0001367070198C3B7F700E09843B7F700E047
:1005E0001367170298C30100B7F700E0DC4313F765
:1005F00017008547E31AF7FEB7F700E09843B7F70F
:1006000000E0799B98C3010072440561828001116A
:1006100006CE22CC0010AA8E2E8E32833685BA8565
:100620003E86C2864687F687A307F4FEF287230735
:10063000F4FE9A87A306F4FEAA872306F4FEAE878B
:10064000A305F4FEB2872305F4FEB687A304F4FEE7
:10065000BA872304F4FE8347F4FE93068004014620
:1006600081453E85EF00207A8347E4FE93068004AF
:10067000014681453E85EF0000798347D4FE93060D
:100680008004014681453E85EF00E0778347C4FE44
:1006900093068004014681453E85EF00C07683477E
:1006A000B4FE93068004014681453E85EF00A075A7
:1006B0008347A4FE93068004014681453E85A12719
:1006C000834794FE93068004014681453E85252F8D
:1006D000834784FE93068004014681453E85252795
:1006E0008347440093068004014681453E85212FBF
:1006F0008347040093068004014681453E852127F7
:100700008347840093068004014681453E85E52D9C
:100710000100F240624405618280011106CE22CCC4
:1007200000102326A4FE2324B4FEB28736872313A9
:10073000F4FEBA872312F4FE85450965EFA0D021A7
:10074000B707055083C7070013F7F70FB707055022
:100750001377F7FC1377F70F2380E700B7070550EF
:1007600083C7070013F7F70FB70705501367270470
:100770001377F70F2380E700B707055083C71700EB
:1007800013F7F70FB7070550659B1377F70FA38093
:10079000E700B7070550035744FE2392E700B70769
:1007A0000550035764FE2393E700B707055003275E
:1007B000C4FE98C7B7070550032784FED8C7B707FC
:1007C000055083C7170013F7F70FB70705501377C6
:1007D000F7031377F70FA380E70037070550B70734
:1007E0000550034717001377F70FA380E700B707FB
:1007F000055083C7270013F7F70FB7070550136796
:1008000047001377F70F2381E700B707055083C729
:10081000170013F7F70FB707055013671700137783
:10082000F70FA380E700B707055083C7070013F74A
:10083000F70FB7070550136717001377F70F2380DB
:10084000E7008D4513056005EF7040521305600504
:10085000EF70004E0100F2406244056182807971C0
:1008600006D622D40018232EA4FC231704FE231638
:1008700004FE0327C4FDA54763E0E70C8327C4FDFE
:1008800013972700F9679387870EBA979C4382874F
:10089000B7370140938707C083D74702C207C18398
:1008A0002317F4FE69A8B707004083D74702C207A1
:1008B000C1832317F4FE61A0B70700409387074068
:1008C00083D74702C207C1832317F4FE8DA8B71749
:1008D00000409387078083D74702C207C18323174D
:1008E000F4FEB1A8B7170040938707C083D747022B
:1008F000C207C1832317F4FE99A0B737014093873D
:10090000074083D74702C207C1832317F4FE05A817
:10091000B7570140938707C083D74702C207C183F7
:100920002317F4FE29A8B757014083D74702C2070F
:10093000C1832317F4FE21A0231704FE0100B7078B
:100940000020138707008327C4FDBA9783C70700D9
:1009500013F7F70F9307F00F6317F7008357E4FEC1
:100960002316F4FE2DA8B70700201387070083275E
:10097000C4FDBA9783C7070093F7F70F3E85992107
:10098000AA8791EB8357E4FEB307F040C207C18307
:100990002316F4FE29A08357E4FE2316F4FEB707BE
:1009A0000020138707008327C4FDBA9783C7070079
:1009B00013F7F70F238DE18C8317C4FE3E85B250E9
:1009C000225445618280011122CE00102326A4FE0C
:1009D0000327C4FEA54763E0E7088327C4FE1397F7
:1009E0002700F96793870711BA979C438287B73727
:1009F0000140938707C023920702B9A8B7070040B8
:100A00002392070291A8B7070040938707402392DB
:100A1000070299A0B7170040938707802392070227
:100A200025A8B7170040938707C0239207022DA07F
:100A3000B7370140938707402392070231A8B75781
:100A40000140938707C02392070239A0B75701409E
:100A50002392070211A00100010072440561828007
:100A6000397106DE22DC80002326A4FC2324B4FC9A
:100A70002322C4FC232604FE91450325C4FCEF2059
:100A80008005AA873E871306200DF5679385477C6E
:100A90003A85EF6000418327C4FC1397C700832782
:100AA00084FC7D8F8327C4FCB207B307F74093B75C
:100AB000170093F7F70F3E871306300DF567938500
:100AC000477C3A85EF60E03D8327C4FC1397C7005D
:100AD000832744FC7D8F8327C4FCB207B307F7400C
:100AE00093B7170093F7F70F3E871306400DF5678E
:100AF0009385477C3A85EF60C03A0325C4FCEF201C
:100B0000E003832784FC93F7F70F930680040146E4
:100B100081453E85CD2C832744FC93F7F70F930640
:100B20008004014681453E85F92C832784FC13F718
:100B3000F70FB7070020938607008327C4FCB697FA
:100B40002380E7000327C4FCA54763E0E708832769
:100B5000C4FC13972700F96793878713BA979C43C0
:100B60008287B7370140938707C02324F4FE8DA006
:100B7000B70700402324F4FEA1A8B70700409387DD
:100B800007402324F4FEA9A0B717004093870780ED
:100B90002324F4FE35A8B7170040938707C0232409
:100BA000F4FE3DA0B7370140938707402324F4FEAD
:100BB00005A0B7570140938707C02324F4FE09A876
:100BC000B75701402324F4FE21A085472326F4FED5
:100BD00085450545EFA0A05C832784FC13D78700DB
:100BE0008D47631AF7008545B70716001385070C74
:100BF000EFA04009E5A8832784FC13D78700C547E9
:100C0000631AF7008545B707180013850710EFA092
:100C10006007E9A8832784FC13D787009307200285
:100C2000631AF7008545B7171A0013850780EFA0F0
:100C300060056DA8832784FC13D7870093073002D3
:100C4000631AF7008545B7171A00138507C0EFA090
:100C5000600369A8832784FC13D7870093071003D8
:100C60006317F70085450565EFA0C00141A0832704
:100C700084FC13D7870093071007631AF700854594
:100C8000B707008013854700EF90D07F85A08327AA
:100C900084FC13D7870093073008631AF700854553
:100CA000B707138013850701EF90D07D81A08327BC
:100CB00084FC13D7870093071009631AF700854552
:100CC000B707158013850702EF90D07B05A0832717
:100CD00084FC13D78700930730096319F700854513
:100CE000B707158013850704EF90D0798327C4FEDA
:100CF000A9EB232E04FC232004FE231204FE9307F9
:100D0000C4FD3E85EFA0907C231E04FCFD572310FC
:100D1000F4FE231104FE231F04FC230204FE9307A8
:100D2000C4FDBE85032584FEEFA060759305000613
:100D3000032584FEEFB0C00F8545032584FEEFA098
:100D4000B07C0100F250625421618280011122CEF8
:100D500000102326A4FEAE87A305F4FE8347B4FE4D
:100D600085CB8327C4FEBD8B0547B317F700939649
:100D70000701C1828327C4FE13D75700B70700209D
:100D80000A079387C700BA979C43368798CB3DA044
:100D90008327C4FEBD8B0547B317F7009396070161
:100DA000C1828327C4FE13D75700B70700200A0764
:100DB0009387C700BA979C433687D8CB010072440B
:100DC00005618280011122CE00102326A4FE832714
:100DD000C4FE958313F77700B70700200A079387AF
:100DE000C700BA979C439C470327C4FE7D8B85466A
:100DF0003397E600F98FB337F00093F7F70F3E858E
:100E0000724405618280797106D622D40018232E9F
:100E1000A4FC232CB4FCB2872328D4FCA30BF4FC41
:100E2000232004FE232204FE232404FE8327C4FD82
:100E3000958393F7F70F9D8BA307F4FE8327C4FDDB
:100E400093F7F70FFD8B2307F4FE8347F4FE91E73A
:100E500085451145EFA0A03491A80347F4FE8547CE
:100E60006317F70085452145EFA0603381A0034754
:100E7000F4FE89476317F70085454145EFA020320E
:100E800035A00347F4FE8D476318F7008545130529
:100E90000002EFA0C03019A80347F4FE9147631782
:100EA000F700854513050004EFA0602F8347E4FE9B
:100EB0000547B317F700C207C1832310F4FE0327C9
:100EC00084FD85476317F702832704FDC207C183AA
:100ED000A183C207C18389E78D472322F4FE11A8AD
:100EE000832704FDC207C183A183C207C1832322D4
:100EF000F4FE832704FDC207C18393F7F70F232471
:100F0000F4FE0347F4FEB70700200A079387C700E3
:100F1000BA979C43130704FEBA853E85EF90703064
:100F2000032784FD85476319F7020347F4FEB707DB
:100F300000200A079387C700BA9794438347E4FECB
:100F40000547B317F700C207C183034774FD3A860C
:100F5000BE853685EF90904F0100B2502254456116
:100F600082801D7186CEA2CC80102326A4FA232471
:100F7000B4FA85450325C4FAEF10F035AA873E87F9
:100F80001306D006F9679385C7823A85EF507071D2
:100F9000832784FAB337F00093F7F70F3E871306E1
:100FA000F006F9679385C7823A85EF50906F8327E3
:100FB00084FABD832315F4FE8357A4FE85073E877C
:100FC000832784FAB3D7E7022314F4FE0325C4FA77
:100FD000EF10D036B7370140938707C02326F4FEC1
:100FE0000327C4FAA54763ECE7088327C4FA1397DD
:100FF0002700F96793870716BA979C438287B7370C
:101000000140938707C02326F4FE95A8B707004048
:101010002326F4FEADA0B7070040938707402326A0
:10102000F4FEB1A8B7170040938707802326F4FE8B
:10103000B9A0B7170040938707C02326F4FE81A00C
:10104000B71700402326F4FE1DA8B717004093876A
:1010500007402326F4FE25A0B737014093870740B9
:101060002326F4FE29A8B7570140938707C02326FB
:10107000F4FE31A0B75701402326F4FE0100232ED1
:1010800004FC232004FE231204FE835784FE231055
:10109000F4FE8357A4FE231EF4FC231104FE231F39
:1010A00004FC230204FE9307C4FDBE850325C4FE91
:1010B000EFA0E03C054685450325C4FEEFA0505057
:1010C00085450325C4FEEFB0E00FF96703AE478006
:1010D00013874780032347001387478083288700AF
:1010E000138747800328C70013874780084B13875F
:1010F00047804C4B13874780104F13874780544FCE
:1011000013874780185393874780DC53232AC4FBF7
:10111000232C64FA232E14FB232004FD2322A4FC99
:101120002324B4FC2326C4FC2328D4FC232AE4FC77
:10113000232CF4FC8327C4FA93F7F70F8A071307CD
:1011400004FFBA9783A747FC8D453E85EF601042A8
:101150008327C4FA8A07130704FFBA9783A747FCBB
:101160003E85EF60F03C85450325C4FEEFA0D039F5
:101170000100F640664425618280797106D622D44A
:101180000018232EA4FC232CB4FC032784FD8967BC
:1011900093871771B337F70093F7F70F3E8713065E
:1011A0005003F967938587863A85EF50904FB7379C
:1011B0000140938707C02326F4FE8327C4FDC18323
:1011C000BD8B2547636EF70613972700F967938752
:1011D0008718BA979C438287B7370140938707C027
:1011E0002326F4FEB1A8B70700402326F4FE89A801
:1011F000B7070040938707402326F4FE91A0B71756
:101200000040938707802326F4FE1DA8B7170040EF
:10121000938707C02326F4FE25A0B73701409387A4
:1012200007402326F4FE29A8B7570140938707C03B
:101230002326F4FE31A0B75701402326F4FE010017
:101240008327C4FE83D7C7022315F4FE0357A4FEE9
:10125000832784FD3307F702896793870771B357A4
:10126000F7022314F4FE8327C4FDA1838D8B81EB49
:101270008327C4FE035784FE239AE702A9A8832785
:10128000C4FDA18313F7370085476319F70083274F
:10129000C4FE035784FE239CE70235A88327C4FDC0
:1012A000A18313F7370089476319F7008327C4FE2A
:1012B000035784FE239EE70239A88327C4FDA18338
:1012C00013F737008D476318F7008327C4FE0357D1
:1012D00084FE2390E7040100B250225445618280CD
:1012E0005D7186C6A2C48008232EA4FA232CB4FA0A
:1012F000232AC4FA8327C4FBC1838D453E85EF10A2
:10130000807DAA873E871306D00AF9679385878672
:101310003A85EF501039032744FB8967938717718B
:10132000B337F70093F7F70F3E871306F00AF96714
:10133000938587863A85EF50D036232E04FC2320F0
:1013400004FE231204FE232604FC232804FC232A83
:1013500004FC232C04FC231504FE8327C4FBC18357
:10136000BD8B3E85EF10807D8327C4FB93F7F70F7D
:1013700093068031014685453E8571348545054596
:10138000EF90F061B7370140938707C02326F4FE42
:101390008327C4FBC183BD8B2547636EF706139774
:1013A0002700F9679387071BBA979C438287B73753
:1013B0000140938707C02326F4FEB1A8B707004079
:1013C0002326F4FE89A8B707004093870740232609
:1013D000F4FE91A0B7170040938707802326F4FE00
:1013E0001DA8B7170040938707C02326F4FE25A049
:1013F000B7370140938707402326F4FE29A8B75743
:101400000140938707C02326F4FE31A0B75701405F
:101410002326F4FE01008327C4FB13D7C7008D47A2
:10142000631AF7008545B70716001385070CEF9080
:10143000700515AA8327C4FB13D7C700C547631AD5
:10144000F7008545B707180013850710EF90900344
:1014500019AA8327C4FB13D7C700C947631AF7002B
:101460008545B707180013850720EF90B001E5A860
:101470008327C4FB13D7C700CD47631AF700854500
:10148000B707180013850730EF90C07FE9A88327BE
:10149000C4FB13D7C70093072002631AF7008545E2
:1014A000B7171A0013850780EF90C07D6DA88327BA
:1014B000C4FB13D7C70093073002631AF7008545B2
:1014C000B7171A00138507C0EF90C07B69A8832760
:1014D000C4FB13D7C700930710036317F7008545B4
:1014E0000565EF90207A41A08327C4FB13D7C7007E
:1014F00093071007631AF7008545B7070080138527
:101500004700EF90207885A08327C4FB13D7C7003E
:1015100093073008631AF7008545B70713801385D2
:101520000701EF90207681A08327C4FB13D7C70063
:1015300093071009631AF7008545B70715801385CF
:101540000702EF90207405A08327C4FB13D7C700C0
:10155000930730096319F7008545B7071580138590
:101560000704EF90207203A74182832784FBB357BF
:10157000F702C1832315F4FE03A741828357A4FE1B
:101580008507BE86832784FBB387F602B357F7022D
:101590002314F4FE035784FE832744FB3307F7022A
:1015A000896793870771B357F7022313F4FE8357B4
:1015B00084FEFD17C207C1832310F4FE8357A4FEE7
:1015C000231EF4FC231104FE231F04FC230204FE4B
:1015D0009307C4FDBE850325C4FEEF90506A9307B0
:1015E00000072316F4FC85472317F4FC231804FC9A
:1015F000835764FE2319F4FC8947231AF4FC8947B6
:10160000231BF4FC231C04FC231D04FC8327C4FBC4
:10161000A1838D8B9DE39307C4FCBE850325C4FE87
:10162000EF90D07DA1450325C4FEEFA0B009914500
:101630000325C4FEEFA0D01D45A08327C4FBA183D2
:1016400013F7370085476315F7029307C4FCBE857F
:101650000325C4FEEFA04014A1450325C4FEEFA05E
:10166000300B930500400325C4FEEFA0301FADA052
:101670008327C4FBA18313F7370089476314F7025C
:101680009307C4FCBE850325C4FEEFA0002FA1452F
:101690000325C4FEEFA0700D91450325C4FEEFA005
:1016A00050211DA88327C4FBA18313F737008D4762
:1016B0006314F7029307C4FCBE850325C4FEEFA0A4
:1016C0008049A1450325C4FEEFA0F00E930500401C
:1016D0000325C4FEEFA0B02285450325C4FEEFA07C
:1016E000206885450325C4FEEFA000620100B640D6
:1016F000264461618280797106D622D40018232E97
:10170000A4FC8327C4FDB337F00093F7F70F3E879F
:1017100013061004F9679385478A3A85EF5060787D
:101720008327C4FD9C43BD8B0547B317F7009396F1
:101730000701C1828327C4FD9C4313D75700B70715
:1017400000200A079387C700BA979C43368798CB37
:101750008327C4FDDC43BD8B0547B317F700939681
:101760000701C1828327C4FDDC4313D75700B707A5
:1017700000200A079387C700BA979C43368798CB07
:101780008327C4FDDC472326F4FE01008327C4FE23
:101790001387F7FF2326E4FEF5FB8327C4FDDC4314
:1017A000BD8B0547B317F70093960701C1828327C6
:1017B000C4FDDC4313D75700B70700200A079387FF
:1017C000C700BA979C433687D8CB8327C4FDDC4734
:1017D0002324F4FE0100832784FE1387F7FF2324CC
:1017E000E4FEF5FB8327C4FD9C43BD8B0547B3177F
:1017F000F70093960701C1828327C4FD9C4313D74A
:101800005700B70700200A079387C700BA979C4381
:101810003687D8CB0100B25022544561828079715D
:1018200006D622D40018232EA4FC8327C4FDB33788
:10183000F00093F7F70F3E8713064005F96793858D
:10184000478A3A85EF50E0658327C4FDDC43BD8BB2
:101850000547B317F70093960701C1828327C4FD9C
:10186000DC4313D75700B70700200A079387C70048
:10187000BA979C433687D8CB8327C4FD9C43BD8B46
:101880000547B317F70093960701C1828327C4FD6C
:101890009C4313D75700B70700200A079387C70058
:1018A000BA979C433687D8CB8327C4FDDC472326D1
:1018B000F4FE01008327C4FE1387F7FF2326E4FE0E
:1018C000F5FB8327C4FD9C43BD8B0547B317F70089
:1018D00093960701C1828327C4FD9C4313D7570009
:1018E000B70700200A079387C700BA979C4336873B
:1018F00098CB8327C4FDDC472324F4FE0100832713
:1019000084FE1387F7FF2324E4FEF5FB8327C4FD41
:10191000DC43BD8B0547B317F70093960701C182DF
:101920008327C4FDDC4313D75700B70700200A07FD
:101930009387C700BA979C43368798CB8327C4FD0B
:10194000DC472322F4FE0100832744FE1387F7FFC0
:101950002322E4FEF5FB0100B2502254456182804F
:10196000797106D622D40018232EA4FCAE87A30DCD
:10197000F4FC8327C4FDB337F00093F7F70F3E87DD
:1019800013069006F9679385478A3A85EF506051B0
:101990008327C4FD9C43BD8B0547B317F70093967F
:1019A0000701C1828327C4FD9C4313D75700B707A3
:1019B00000200A079387C700BA979C433687D8CB85
:1019C0008347B4FD95CB8327C4FDDC43BD8B05471E
:1019D000B317F70093960701C1828327C4FDDC4348
:1019E00013D75700B70700200A079387C700BA9795
:1019F0009C43368798CB0DA88327C4FDDC43BD8B61
:101A00000547B317F70093960701C1828327C4FDEA
:101A1000DC4313D75700B70700200A079387C70096
:101A2000BA979C433687D8CB8327C4FDDC4723264F
:101A3000F4FE01008327C4FE1387F7FF2326E4FE8C
:101A4000F5FB8327C4FD9C43BD8B0547B317F70007
:101A500093960701C1828327C4FD9C4313D7570087
:101A6000B70700200A079387C700BA979C433687B9
:101A700098CB8327C4FDDC472324F4FE0100832791
:101A800084FE1387F7FF2324E4FEF5FB8327C4FDC0
:101A90009C43BD8B0547B317F70093960701C1829E
:101AA0008327C4FD9C4313D75700B70700200A07BC
:101AB0009387C700BA979C433687D8CB8327C4FD4A
:101AC000DC43BD8B0547B317F70093960701C1822E
:101AD0008327C4FDDC4313D75700B70700200A074C
:101AE0009387C700BA979C43368798CB0100B250C2
:101AF000225445618280797106D622D40018232EA3
:101B0000A4FC8327C4FDB337F00093F7F70F3E879B
:101B100013065008F9679385478A3A85EF50603875
:101B2000A30704FE8327C4FD9C43BD8B0547B31761
:101B3000F70093960701C1828327C4FD9C4313D706
:101B40005700B70700200A079387C700BA979C433E
:101B50003687D8CB8327C4FDDC43BD8B0547B3173D
:101B6000F70093960701C1828327C4FDDC4313D796
:101B70005700B70700200A079387C700BA979C430E
:101B8000368798CB8327C4FDDC472324F4FE01006D
:101B9000832784FE1387F7FF2324E4FEF5FB8327C6
:101BA000C4FD9C43BD8B0547B317F700939607010F
:101BB000C1828327C4FD9C4313D75700B707002079
:101BC0000A079387C700BA979C43368798CB832729
:101BD000C4FDDC472322F4FE0100832744FE138763
:101BE000F7FF2322E4FEF5FB8327C4FDDC433E859B
:101BF000EFF04F9DAA8781C78547A307F4FE83278F
:101C0000C4FD9C43BD8B0547B317F70093960701AE
:101C1000C1828327C4FD9C4313D75700B707002018
:101C20000A079387C700BA979C433687D8CB832788
:101C3000C4FDDC472320F4FE0100832704FE138744
:101C4000F7FF2320E4FEF5FB8347F4FE3E85B25008
:101C5000225445618280797106D622D40018232E41
:101C6000A4FCAE87A30DF4FC8327C4FDB337F000BA
:101C700093F7F70F3E871306700AF9679385478A33
:101C80003A85EF500022930700F8A307F4FE09AA53
:101C90000347B4FD8347F4FEF98F93F7F70F95CB15
:101CA0008327C4FDDC43BD8B0547B317F70093962C
:101CB0000701C1828327C4FDDC4313D75700B70750
:101CC00000200A079387C700BA979C43368798CBB2
:101CD0000DA88327C4FDDC43BD8B0547B317F70070
:101CE00093960701C1828327C4FDDC4313D75700B5
:101CF000B70700200A079387C700BA979C43368727
:101D0000D8CB8347F4FE8583A307F4FE8327C4FD65
:101D1000DC472324F4FE0100832784FE1387F7FFAA
:101D20002324E4FEF5FB8327C4FD9C43BD8B0547BC
:101D3000B317F70093960701C1828327C4FD9C4324
:101D400013D75700B70700200A079387C700BA9731
:101D50009C43368798CB8327C4FDDC472322F4FEBF
:101D60000100832744FE1387F7FF2322E4FEF5FBDF
:101D70008327C4FD9C43BD8B0547B317F70093969B
:101D80000701C1828327C4FD9C4313D75700B707BF
:101D900000200A079387C700BA979C433687D8CBA1
:101DA0008347F4FEE39607EE0325C4FDA933AA8713
:101DB000FD17B337F00093F7F70F3E85B25022546A
:101DC00045618280397106DE22DC26DA8000232616
:101DD000A4FCAE87A305F4FC8327C4FCB337F00052
:101DE00093F7F70F3E871306000CF9679385478A30
:101DF0003A85EF50000BA30704FEA1472307F4FE2A
:101E00008327C4FC9C43BD8B0547B317F70093960B
:101E10000701C1828327C4FC9C4313D75700B7072F
:101E200000200A079387C700BA979C433687D8CB10
:101E30008327C4FCDC472324F4FE0100832784FEAF
:101E40001387F7FF2324E4FEF5FB8327C4FCDC4360
:101E5000BD8B0547B317F70093960701C18283270F
:101E6000C4FCDC4313D75700B70700200A07938749
:101E7000C700BA979C43368798CB7DA88327C4FCBC
:101E80009C43BD8B0547B317F70093960701C182AA
:101E90008327C4FC9C4313D75700B70700200A07C9
:101EA0009387C700BA979C433687D8CB8327C4FC57
:101EB000DC472322F4FE0100832744FE1387F7FF4B
:101EC0002322E4FEF5FB8327C4FC9C43BD8B05471E
:101ED000B317F70093960701C1828327C4FC9C4384
:101EE00013D75700B70700200A079387C700BA9790
:101EF0009C43368798CB8327C4FCDC472320F4FE21
:101F00000100832704FE1387F7FF2320E4FEF5FB7F
:101F10008347F4FE860793948701E1848327C4FCFA
:101F2000DC433E85EFE01FEAAA87E207E187C58F21
:101F3000E207E187A307F4FE8347E4FE1387F7FF78
:101F40002307E4FE85FF8327C4FC9C43BD8B054724
:101F5000B317F70093960701C1828327C4FC9C4303
:101F600013D75700B70700200A079387C700BA970F
:101F70009C433687D8CB8327C4FCDC47232EF4FC54
:101F800001008327C4FD1387F7FF232EE4FCF5FB34
:101F90008347B4FCBE850325C4FCEFF07F9C8347D8
:101FA000F4FE3E85F2506254D254216182800111C8
:101FB00006CE22CC00102326A4FE2324B4FE232226
:101FC000C4FE8327C4FEB337F00093F7F70F3E87B4
:101FD0001306700FF9679385478A3A85EF40706C56
:101FE000832784FEB337F00093F7F70F3E8713067D
:101FF000800FF9679385478A3A85EF40906A0325F9
:10200000C4FEEFF04FEF8327C4FE83C78700860727
:1020100093F7F70FBE850325C4FE353929A883271A
:1020200084FE138717002324E4FE83C70700BE85C0
:102030000325C4FE0D31832744FE1387F7FF2322B7
:10204000E4FEF1FF0325C4FEEFF06FFD0100F24056
:10205000624405618280011106CE22CC0010232645
:10206000A4FEAE873287A305F4FEBA872305F4FEEB
:102070008327C4FEB337F00093F7F70F3E871306AC
:102080006013F9679385478A3A85EF40906103258D
:10209000C4FEEFF04FE68327C4FE83C787008607A0
:1020A00093F7F70FBE850325C4FE75368347B4FE4C
:1020B000BE850325C4FE45368347A4FEBE850325A1
:1020C000C4FE513E0325C4FEEFF06FF50100F2405F
:1020D000624405618280797106D622D40018232ECD
:1020E000A4FCAE87A30DF4FC8327C4FDB337F00036
:1020F00093F7F70F3E871306401EF9679385478ACB
:102100003A85EF40105AA30704FE0325C4FDEFF003
:102110008FDE8327C4FD83C78700860793F7F70FF9
:10212000BE850325C4FD053E8347B4FDBE8503255A
:10213000C4FD15360325C4FDEFF0EFDB8327C4FD96
:1021400083C787008607E207E18793E71700E20766
:10215000E18793F7F70FBE850325C4FDED3C854568
:102160000325C4FD8531AA87A307F4FE0325C4FD1A
:10217000EFF0EFEA8347F4FE3E85B250225445610A
:102180008280011106CE22CC26CA00102326A4FE8E
:10219000AE872322C4FE2320D4FEA305F4FE8327AA
:1021A000C4FEB337F00093F7F70F3E871306C01F46
:1021B000F9679385478A3A85EF40B04E832744FEFE
:1021C000B337F00093F7F70F3E871306D01FF96778
:1021D0009385478A3A85EF40D04C0325C4FEEFF043
:1021E0008FD18327C4FE83C78700860793F7F70F35
:1021F000BE850325C4FEEFF01FA68347B4FEBE854F
:102200000325C4FEEFF03FA50325C4FEEFF0AFCEDB
:102210008327C4FE83C787008607E207E18793E729
:102220001700E207E18793F7F70FBE850325C4FE89
:10223000EFF07FA22DA0832704FE93B7170093F73A
:10224000F70F3E87832444FE938714002322F4FE75
:10225000BA850325C4FEBD36AA872380F4008327F0
:1022600004FE1387F7FF2320E4FEF1F70325C4FEE5
:10227000EFF0EFDA0100F2406244D244056182805F
:10228000011106CE22CC00102326A4FEAE87328791
:10229000A305F4FEBA872305F4FE8327C4FEB337F3
:1022A000F00093F7F70F3E871306B028F967938580
:1022B000478A3A85EF40F03E0325C4FEEFF0AFC3F6
:1022C0008327C4FE83C78700860793F7F70FBE8571
:1022D0000325C4FEEFF03F988347B4FEBE85032577
:1022E000C4FEEFF05F978347A4FEBE850325C4FEBE
:1022F000EFF07F960325C4FEEFF06FD20100F240AD
:10230000624405618280797106D622D40018232E9A
:10231000A4FCAE87A30DF4FC8327C4FDB337F00003
:1023200093F7F70F3E871306D029F9679385478AFD
:102330003A85EF401037A30704FE0325C4FDEFF0F4
:102340008FBB8327C4FD83C78700860793F7F70FEA
:10235000BE850325C4FDEFF01F908347B4FDBE8505
:102360000325C4FDEFF03F8F0325C4FDEFF02FCB15
:102370000325C4FDEFF02FB88327C4FD83C7870072
:102380008607E207E18793E71700E207E18793F703
:10239000F70FBE850325C4FDEFF0FF8B85450325B0
:1023A000C4FDEFF03FA2AA87A307F4FE0325C4FDF6
:1023B000EFF0EFC68347F4FE3E85B25022544561EC
:1023C0008280797106D622D400182326A4FEAE8717
:1023D0002322C4FE2320D4FE232EE4FCA305F4FE16
:1023E0008327C4FEB337F00093F7F70F3E87130639
:1023F000802BF9679385478A3A85EF40902A032717
:1024000004FE8327C4FDB307F740B337F00093F70A
:10241000F70F3E871306902BF9679385478A3A8515
:10242000EF4030288327C4FE032704FE98C3832788
:10243000C4FE0327C4FDD8C38327C4FE0347B4FEEC
:102440002384E7008327C4FE032744FED8C7C14680
:1024500005468545032504FEEFE0FF9AD146054673
:1024600085450325C4FDEFE01F9A0100B2502254B8
:1024700045618280011122CE00102326A4FEAE8782
:10248000A305F4FEF9670327C4FE0A079387871D97
:10249000BA979C433E878347B4FEC207C183231685
:1024A000F7000100F9670327C4FE0A079387871D19
:1024B000BA979C4383D78700C207C18393F7070865
:1024C000F5F3F9670327C4FE0A079387871DBA97B8
:1024D0009C4383D7C70001007244056182800111CB
:1024E00022CE00102326A4FEAE872315F4FE8357C8
:1024F000A4FEA183C207C18393F6F70FF9670327F0
:10250000C4FE0A079387871DBA979C433E8793971B
:102510000601C1832316F7000100F9670327C4FEF3
:102520000A079387871DBA979C4383D78700C20702
:10253000C18393F70708F5F38357A4FE93F6F70FCB
:10254000F9670327C4FE0A079387871DBA979C4340
:102550003E8793970601C1832316F7000100F967B0
:102560000327C4FE0A079387871DBA979C4383D726
:102570008700C207C18393F70708F5F3010072448F
:1025800005618280011122CE00102326A4FEAE87B1
:102590003287A305F4FEBA872305F4FEF967032703
:1025A000C4FE0A079387871DBA979C433E878347DB
:1025B000B4FEC207C1832316F7000100F9670327A1
:1025C000C4FE0A079387871DBA979C4383D7870069
:1025D000C207C18393F70708F5F3F9670327C4FE21
:1025E0000A079387871DBA979C4383D7C700F9676B
:1025F0000327C4FE0A079387871DBA979C433E872B
:102600008347A4FEC207C1832316F7000100F967C0
:102610000327C4FE0A079387871DBA979C4383D775
:102620008700C207C18393F70708F5F3F96703270B
:10263000C4FE0A079387871DBA979C4383D7C700B8
:102640000100724405618280011122CE0010232610
:10265000A4FEAE872322C4FE2320D4FEA305F4FEED
:10266000F9670327C4FE0A079387871DBA979C431F
:102670003E878347B4FEC207C1832316F7000100DB
:10268000F9670327C4FE0A079387871DBA979C43FF
:1026900083D78700C207C18393F70708F5F3B9A072
:1026A000832744FE138717002322E4FE83C6070016
:1026B000F9670327C4FE0A079387871DBA979C43CF
:1026C0003E8793970601C1832316F7000100F9673F
:1026D0000327C4FE0A079387871DBA979C4383D7B5
:1026E0008700C207C18393F70708F5F3832704FE29
:1026F0001387F7FF2320E4FEC5F70100724405614C
:102700008280011122CE00102326A4FEAE87232250
:10271000C4FE2320D4FEA305F4FEF9670327C4FEFC
:102720000A079387871DBA979C433E878347B4FE69
:10273000C207C1832316F7000100F9670327C4FE0F
:102740000A079387871DBA979C4383D78700C207E0
:10275000C18393F70708F5F3F9670327C4FE0A0757
:102760009387871DBA979C4383D7C70095A0F967C5
:102770000327C4FE0A079387871DBA979C432396B5
:1027800007000100F9670327C4FE0A079387871D26
:10279000BA979C4383D78700C207C18393F7070882
:1027A000F5F3F9670327C4FE0A079387871DBA97D5
:1027B0009C4383D7C70093960701C182832744FEB9
:1027C000138717002322E4FE13F7F60F2380E70098
:1027D000832704FE1387F7FF2320E4FEC9FB0100D3
:1027E0007244056182805D7186C6A2C4800823267A
:1027F000A4FC2324B4FC2322C4FC2320D4FC232ED9
:10280000E4FA232CF4FA232A04FBF9670327C4FC17
:102810000A079387871DBA979C433E85EF80B029AE
:1028200085450545EF80B017032704FC9307301258
:102830006313F702032784FB93074012631DF7001D
:102840000327C4FB930750126317F700854505451E
:10285000EF8040431DA8032704FC89679387A714D2
:102860006315F702032784FB89679387B714631EF8
:10287000F7000327C4FB89679387C7146317F70022
:10288000854537152000EF80E03F8327C4FC91E7A2
:1028900085450565EF80B01025A00327C4FC85475A
:1028A0006317F70085451165EF80D01311A8032742
:1028B000C4FC89476316F70085452165EF809012B7
:1028C000832704FC93F7F70F93068031054685456F
:1028D0003E85EFE04FD38327C4FB93F7F70F9306B2
:1028E0008031054685453E85EFE0EFD1032784FB27
:1028F000C167F917630DF700832784FB93F7F70F80
:1029000093068034054681453E85EFE0CFCF03270F
:1029100044FB9307F00F630DF700832744FB93F705
:10292000F70F93060031014685453E85EFE0AFCDB8
:10293000232E04FC232004FE232204FE232404FE71
:10294000231604FE231E04FC93074010231FF4FCEF
:10295000231004FE032784FC85476305F7028327C1
:1029600084FC81CF032784FC89476303F702032794
:1029700084FC8D476304F7020DA8231104FE231283
:1029800004FE25A0231104FE85472312F4FE31A87E
:1029900089472311F4FE231204FE01A8894723115D
:1029A000F4FE85472312F4FE0100231704FE03A75B
:1029B0004182832744FCB357F7022317F4FE03A791
:1029C0004182832744FCB377F70291E78357E4FE03
:1029D000FD172317F4FE0357E4FE9307F00763F790
:1029E000E700930780032317F4FE49A80357E4FE8A
:1029F0009307F00363F7E700930700032317F4FE40
:102A0000B5A80357E4FEFD4763F7E700930780028C
:102A10002317F4FEA5A00357E4FEBD4763F7E700C4
:102A2000930700022317F4FE91A80357E4FE9D4785
:102A300063F6E700E1472317F4FE89A00357E4FE9D
:102A40008D4763F6E700C1472317F4FE05A8035737
:102A5000E4FE854763F6E700A1472317F4FE39A893
:102A60008357E4FE81C7231704FE09A813067021CB
:102A7000F9679385478E0145EF40A0428357E4FEF6
:102A80002314F4FE930700202313F4FE231504FE01
:102A90009D472316F4FEF9670327C4FC0A079387B2
:102AA000871DBA979C433E879307C4FDBE853A8530
:102AB000EF80D007F9670327C4FC0A079387871DB7
:102AC000BA979C4385453E85EF80D0150100B640FE
:102AD000264461618280797122D60018232EA4FCDD
:102AE000232CB4FC8547A307F4FE0327C4FD0A0783
:102AF000938701B7BA979C4399EB0327C4FD0A0754
:102B0000938701B7BA97032784FD98C315A00327BD
:102B1000C4FD0A07938701B7BA979C43032784FD36
:102B20006316F7008547A307F4FE19A0A30704FE68
:102B30008347F4FE3E85325445618280011106CE02
:102B400022CC00102326A4FE8327C4FE81EB8545FA
:102B5000856713850780EF8080646DA80327C4FE16
:102B600085476317F70085450545EF80A0675DA0A1
:102B70000327C4FE89476317F70085450945EF80A1
:102B8000606649A80327C4FE8D476317F700854593
:102B90001145EF802065BDA80327C4FE9147631748
:102BA000F70085452145EF80E063ADA00327C4FE13
:102BB00095476317F70085454145EF80A06299A8C6
:102BC0000327C4FE99476318F700854513050002E3
:102BD000EF80406181A00327C4FE9D476317F70083
:102BE00085450965EF80A05B35A00327C4FEA1479A
:102BF0006318F700854537050800EF80405A19A88B
:102C00000327C4FEA5476317F70085453705100065
:102C1000EF80E0580100F2406244056182807971E2
:102C200022D60018232EA4FCB7370140938707C093
:102C30002326F4FE231504FE0327C4FDA54763ECF9
:102C4000E7088327C4FD13972700F9679387471E7A
:102C5000BA979C438287B7370140938707C02326E2
:102C6000F4FE95A8B70700402326F4FEADA0B707F1
:102C70000040938707402326F4FEB1A8B717004011
:102C8000938707802326F4FEB9A0B71700409387E7
:102C900007C02326F4FE81A0B71700402326F4FEC8
:102CA0001DA8B7170040938707402326F4FE25A0F0
:102CB000B7370140938707402326F4FE29A8B7576A
:102CC0000140938707C02326F4FE31A0B757014087
:102CD0002326F4FE01000327C4FD0A07938781B968
:102CE000BA9798438947631FF7008327C4FE83D7A9
:102CF00047021397070141838D47B357F702231506
:102D0000F4FE39A08327C4FE83D747022315F4FEBF
:102D10008357A4FE3E85325445618280797122D664
:102D20000018232EA4FCB7370140938707C0232641
:102D3000F4FE0327C4FDA54763ECE7088327C4FD21
:102D400013972700F9679387C720BA979C43828718
:102D5000B7370140938707C02326F4FE95A8B7072D
:102D600000402326F4FEADA0B7070040938707403C
:102D70002326F4FEB1A8B7170040938707802326C7
:102D8000F4FEB9A0B7170040938707C02326F4FECE
:102D900081A0B71700402326F4FE1DA8B7170040F6
:102DA000938707402326F4FE25A0B7370140938779
:102DB00007402326F4FE29A8B7570140938707C090
:102DC0002326F4FE31A0B75701402326F4FE01006C
:102DD0008327C4FE2392070201003254456182809A
:102DE000011122CE00102326A4FEAE87A305F4FE17
:102DF0000100F9670327C4FE0A0793874723BA97A0
:102E00009C4383D70700C207C18393F70708F5D314
:102E1000F9670327C4FE0A0793874723BA979C43A1
:102E20003E878347B4FEC207C1832312F700010027
:102E3000724405618280011106CE22CC0010232647
:102E4000A4FE2324B4FE2322C4FE832784FEB337CA
:102E5000F00093F7F70F3E8713061004F967938588
:102E600007923A85EF40E00329A8832784FE138761
:102E700017002324E4FE83C70700BE850325C4FE94
:102E80008537832744FE1387F7FF2322E4FEF1FFF3
:102E90000100F240624405618280011106CE22CC1D
:102EA00000102326A4FE2324B4FE832784FEB33718
:102EB000F00093F7F70F3E8713060005F967938537
:102EC00007923A85EF30F07D39A8832784FE138777
:102ED00017002324E4FE8387070093F7F70FBE85CE
:102EE0000325C4FEF53D832784FE83870700F1FF99
:102EF0000100F240624405618280011106CE22CCBD
:102F000000102326A4FEAE87A305F4FEF96703276D
:102F1000C4FE0A0793874723BA979C433E8783479B
:102F2000B4FE3E86930550523A85EF90C055138704
:102F3000418C8327C4FEBA9783C7070081453E852D
:102F4000EF40D0628347B4FE81CF1387418C832743
:102F5000C4FEBA9783C707003E85EF40705D19A88D
:102F60001387418C8327C4FEBA9783C707003E8529
:102F7000EF40F05D0100F240624405618280011182
:102F800022CE00102326A4FE2324B4FEF9670327D3
:102F9000C4FE0A0793874723BA979C4383D7070049
:102FA000C207C18393F707028DC7F9670327C4FEE1
:102FB0000A0793874723BA979C4383D74700C207E2
:102FC000C18313F7F70F832784FE2380E70085472B
:102FD00011A081473E85724405618280797106D6D1
:102FE00022D40018232EA4FC232CB4FC232AC4FCD6
:102FF0002328D4FC032744FD832704FD3D8F83272A
:10300000C4FDB207F98F93B7170093F7F70F3E8708
:103010001306A00AF967938507923A85EF30706826
:10302000832744FD13D78700832704FDA183B307BB
:10303000F74093B7170093F7F70F3E871306B00AD0
:10304000F967938507923A85EF30B065832744FD91
:1030500093F7F70FE146014685453E85EFD0BFDA8D
:10306000832704FD93F7F70F9306800401468145FB
:103070003E85EFD05FD985450545EF804012032797
:1030800044FDC167FD17F98F0D6713070738638586
:10309000E7200D67130707386369F704056713070F
:1030A00057166381E716056713075716636FF70016
:1030B0001307F022638AE70C130760306381E7107F
:1030C000130760126388E70855A609671307873658
:1030D000638AE7160D67130707126385E718096708
:1030E0001307A7146380E71451A615671307A738C1
:1030F000638CE72615671307A7386362F702116729
:1031000013078738638EE71E1567130787126383DB
:10311000E722116713074712638AE71A81AE19671E
:103120001307C7386386E72A19671307C738636828
:10313000F7001967130767106382E72605AE1D675E
:103140001307E7106380E72C1D671307E7386385D3
:10315000E72E29AEB7070140D44FB7070140370724
:1031600000FC7D17758FD8CFB7070140D843B7074C
:1031700001406D9BD8C3B7070140D843B707014052
:1031800013674700D8C3DDA4B7070140D44FB70782
:103190000140370700FC7D17758FD8CFB707014076
:1031A000D44FB707014037070004558FD8CFB70772
:1031B0000140D843B70701406D9BD8C345ACB70762
:1031C0000140D44FB7070140370700FC7D17758FCA
:1031D000D8CFB7070140D44FB707014037070004E5
:1031E000558FD8CFB7070140D843B70701406D9B33
:1031F000D8C3B7070140D843B7070140136747005A
:10320000D8C3ADA4B7070140D843B70701405D9BC1
:10321000D8C3B7070140D843B707014013678700F9
:10322000D8C3A9A4B7070140D843B70701401D9BE5
:10323000D8C3B7070140D843B707014013678700D9
:10324000D8C32DA4B7070140D843B70701401D9B41
:10325000D8C3B7070140D843B707014013678701B8
:10326000D8C329A4B7070140D44FB7070140370797
:10327000FDFF7D17758FD8CFB7070140D44F832747
:1032800044FDA18313970701B70703007D8FB7079C
:103290000140558FD8CFD9AAB7070140D44FB707FF
:1032A00001403707FDFF7D17758FD8CFB707014065
:1032B000D44F832744FDA18313970701B707030069
:1032C0007D8FB7070140558FD8CF4DA2B70701407A
:1032D000D44FB70701403707F4FF7D17758FD8CF5C
:1032E000B7070140D44F832744FDA18313972701DB
:1032F000B7070C007D8FB7070140558FD8CFBDA20F
:10330000B7070140D44FB70701403707F4FF7D17D7
:10331000758FD8CFB7070140D44F832744FDA183D1
:1033200013972701B7070C007D8FB7070140558F12
:10333000D8CF2DAAB7070140D44FB70701403707B0
:10334000D0FF7D17758FD8CFB7070140D44F8327A3
:1033500044FDA18313974701B70730007D8FB7075E
:103360000140558FD8CF19A2B7070140D44FB707F6
:1033700001403707D0FF7D17758FD8CFB7070140C1
:10338000D44F832744FDA18313974701B70730002B
:103390007D8FB7070140558FD8CFC9A8B707014027
:1033A000D44FB7070140370740FF7D17758FD8CF3F
:1033B000B7070140D44F832744FDA18313976701CA
:1033C000B707C0007D8FB7070140558FD8CF79A8C8
:1033D000B7070140D44FB7070140370740FF7D17BB
:1033E000758FD8CFB7070140D44F832744FDA18301
:1033F00013976701B707C0007D8FB7070140558F4E
:10340000D8CFADA0B7070140D44FB7070140370769
:1034100000FD7D17758FD8CFB7070140D44F8327A4
:1034200044FDA18313978701B70700037D8FB7077A
:103430000140558FD8CF1DA8B7070140D44FB7071B
:103440000140370700FD7D17758FD8CFB7070140C2
:10345000D44F832744FDA18313978701B707000347
:103460007D8FB7070140558FD8CF01008327C4FD5A
:1034700091E785451165EF70905269A80327C4FD57
:1034800085476318F700854537050200EF709055B2
:1034900051A00327C4FD89476318F7008545370508
:1034A0000400EF703054BDA00327C4FD8D4763189E
:1034B000F700854537050800EF70D052A1A8032713
:1034C000C4FD91476318F700854537051000EF707C
:1034D000705189A00327C4FD95476318F7008545FF
:1034E00013050004EF70105035A00327C4FD994761
:1034F0006318F700854513050008EF70B04E19A852
:103500000327C4FD9D476317F70085451305001089
:10351000EF70504D232004FE232204FE232404FEDA
:10352000232604FE832784FD2320F4FE231204FEB9
:10353000231304FE231404FE231604FEB1472315AF
:10354000F4FEF9670327C4FD0A0793874723BA9758
:103550009C433E87930704FEBE853A85EF80704901
:10356000F9670327C4FD0A0793874723BA979C434B
:1035700085453E85EF80306B0100B2502254456195
:103580008280411106C622C40008A1461386C18D5F
:103590008145138501BCEF40A03E0100B2402244AA
:1035A00041018280797106D622D40018232EA4FC12
:1035B000232CB4FC230704FEA30704FE231604FEF9
:1035C0000546930500081385C1BDEFE0DFA8054659
:1035D0009305F00F1385C1BDEFE0FFA701468145BC
:1035E0001385C1BDEFE03FA719469305F00F138582
:1035F000C1BDEFE05FA69307E4FE85463E869305D6
:1036000030081385C1BDEFE0DFB78347E4FE93E7E1
:10361000470093F7F70F3E86930530081385C1BD29
:10362000EFE07FA31D469305F00F1385C1BDEFE0CA
:103630009FA20546930510081385C1BDEFE0BFA109
:103640000546930500081385C1BDEFE0DFA0130612
:10365000B006930540091385C1BDEFE0DF9F014629
:10366000930530081385C1BDEFE0FF9E230704FEDC
:1036700081A803A741828967938707F4B357F702AC
:1036800085453E85EFC01FEF9307E4FE85463E86E5
:10369000930530081385C1BDEFE0BFAE8357C4FE6C
:1036A000C207C18313871700420741832316E4FE34
:1036B0001307F00F6376F7008547A307F4FE11A800
:1036C0008347E4FEDDD70347E4FE9307F00FE302F0
:1036D000F7FA8347F4FE6393070C05469305300819
:1036E0001385C1BDEFE03F979307E4FE85463E8614
:1036F000930520091385C1BDEFE0BFA88347E4FE11
:1037000093F7F70713F7F70F8327C4FD2380E7002C
:103710008347E4FE9D8313F7F70F832784FD2380FF
:10372000E7000146930510081385C1BDEFE0BF9285
:1037300019469305F00F1385C1BDEFE0DF919307A4
:10374000E4FE85463E86930530081385C1BDEFE053
:103750005FA38347E4FE3E86930530081385C1BD11
:10376000EFE07F8F05469305F00F1385C1BDEFE0B5
:103770009F8E054681451385C1BDEFE0DF8D014673
:103780009305F00F1385C1BDEFE0FF8C0146930553
:1037900000081385C1BDEFE01F8C11A00100834715
:1037A000F4FE3E85B250225445618280797122D662
:1037B0000018AA872E87231FF4FCBA87A30EF4FCF7
:1037C0000347D4FDB7373A00938707F0B307F702F2
:1037D0001387471F9307803EB357F7022326F4FE53
:1037E0000357E4FD8327C4FE3307F7028327C4FE93
:1037F00085833E979307803EB357F7023E85325448
:1038000045618280797122D60018232EA4FCAE87F0
:10381000A30DF4FC0347B4FDB7373A00938707F0D4
:10382000B307F7021387471F9307803EB357F7028A
:103830002326F4FE0327C4FD9307803E3307F702D7
:103840008327C4FE85833E978327C4FEB357F702C0
:103850003E85325445618280011122CE0010AA8734
:103860002317F4FE8357E4FE93F7F70F0357E4FEA4
:10387000218342074183B397E700C207C1838507CD
:10388000C207C1833E85724405618280797122D668
:103890000018AA87231FF4FC232604FE231504FE28
:1038A000231404FE8357E4FDA9CB8357E4FDFD17E1
:1038B0002326F4FE19A88327C4FE85832326F4FE5D
:1038C0008357A4FE85072315F4FE8327C4FE93F7D0
:1038D00007F0F5F38357A4FEA2071397070141876A
:1038E0008327C4FEC207C18793F7F70FC207C187BA
:1038F000D98FC207C1872314F4FE835784FE3E8507
:10390000325445618280797106D622D40018232E64
:10391000A4FCA30704FE9307F4FE85463E86854576
:103920001385C1BDEFE0FF858347F4FE918393F7D4
:10393000F70F858B13F7F70F8327C4FD2380E7006C
:103940008347F4FE8D8393F7F70F858B13F7F70FFB
:103950008327C4FD2381E7008347F4FE898393F71F
:10396000F70F858B13F7F70F8327C4FDA380E700BC
:103970008347F4FE998393F7F70F858B13F7F70FBF
:103980008327C4FDA381E7008347F4FE9D8313F7DB
:10399000F70F8327C4FD2382E7000100B2502254B1
:1039A00045618280797106D622D40018232EA4FCAA
:1039B000A30704FE8327C4FD95E79307F4FE85461D
:1039C0003E86930500051385C1BDEFE08FFB83475D
:1039D000F4FE850793F7F70F860793F7F70FA30712
:1039E000F4FE35A80327C4FD85476317F702930744
:1039F000F4FE85463E86930500071385C1BDEFE0C2
:103A00004FF88347F4FE850793F7F70F860793F780
:103A1000F70FA307F4FE21A0FD57A307F4FE834789
:103A2000F4FE3E85B250225445618280797106D6FB
:103A300022D40018232EA4FC232CB4FC231704FE4C
:103A400001458D37AA87139707014183832784FD9A
:103A50002390E7009307C4FE85463E8693056004E5
:103A60001385C1BDEFE0EFF18347C4FEC207C183F8
:103A70008507139707014183832784FD2392E7007D
:103A8000832784FD03D74700832784FD83D707005E
:103A900093F7F70FBE853A85113B2A87832784FD6C
:103AA000D8C79307C4FE89463E8693051005138543
:103AB000C1BDEFE00FED8347C4FEA20713970701D6
:103AC00041878347D4FEC207C187D98FC207C18708
:103AD0002317F4FE8357E4FE3E85BD3BAA873E874D
:103AE000832784FD2393E700832784FD03D76700A2
:103AF000832784FD83D7070093F7F70FBE853A85A8
:103B000075312A87832784FD98CB0545613DAA87B7
:103B1000139707014183832784FD2391E7009307CF
:103B2000C4FE89463E86930510071385C1BDEFE0AC
:103B30004FE58347C4FEA2071397070141878347D8
:103B4000D4FEC207C187D98FC207C1872317F4FEED
:103B50008357E4FE3E850933AA873E87832784FD89
:103B60002394E7008327C4FD83C7370095C38327C9
:103B700084FD03D78700832784FD83D76700B307BD
:103B8000F740139707014183832784FD2394E700BF
:103B9000832784FD03D78700832784FD83D72700ED
:103BA00093F7F70FBE853A85EFF05FC02A8783272A
:103BB00084FDD8CB0100B2502254456182807971D6
:103BC00006D622D40018AA87A30FF4FCA30704FE8C
:103BD000230704FE231604FE8347F4FD93E7170032
:103BE00093F7F70F3E8681451385C1BDEFE0AFC661
:103BF0009307E4FE85463E86930560041385C1BDA8
:103C0000EFE02FD881A803A741828967938707F443
:103C1000B357F70285453E85EFC0DF959307E4FE75
:103C200085463E86930560041385C1BDEFE06FD5E0
:103C30008357C4FEC207C18313871700420741831D
:103C40002316E4FE1307F00F6376F7008547A307FA
:103C5000F4FE29A08347E4FE9D8BD5D78347F4FE6D
:103C600091EF0546AD451385C1BDEFE0CFBE0146DE
:103C700081451385C1BDEFE00FBE11A00100834750
:103C8000F4FE3E85B2502254456182801D7186CE7D
:103C9000A2CC80102326A4FAA30704FE231204FE5C
:103CA0000327C4FA95679387F7E163E6E700854742
:103CB000A307F4FE05AA85679387878E2324F4FE65
:103CC000930744FD3E85EFF01FC41307C4FB930721
:103CD00044FDBA853E85993B834744FD91CB03273C
:103CE00084FC832784FEBA979387E7242324F4FE79
:103CF000834764FD81CF832784FC9387272B860726
:103D0000032784FEBA972324F4FE29A8834754FD91
:103D100091CB032784FC832784FEBA979387472996
:103D20002324F4FE834774FD91CB0327C4FC83272F
:103D300084FEBA97938747292324F4FE834784FDA2
:103D4000D5C3832784FE938767222324F4FE0327A9
:103D500084FE8327C4FA63F6E7008547A307F4FED1
:103D600051A00327C4FA832784FEB307F74023201A
:103D7000F4FE8357E4FB93F7F70FBE85032504FE9B
:103D8000EFF05FA8AA872313F4FE834774FD81CB6D
:103D9000035724FC835764FEBA972313F4FE83571A
:103DA00064FE3E85EFF09FAEAA872312F4FE9307D0
:103DB0001007230EF4FC835744FEA183C207C1837E
:103DC00093F7F70FA30EF4FC835744FE93F7F70F16
:103DD000230FF4FC9307C4FD0D46BE851385C1BDBA
:103DE000EFE0EF9C8347F4FE3E85F6406644256194
:103DF0008280397106DE22DC80008567938767B395
:103E00002326F4FE930744FE3E85EFF0DFAF130751
:103E1000C4FC930744FEBA853E85EFF03FC183475B
:103E200044FE91CB032784FD8327C4FEBA97938772
:103E3000E7242326F4FE834764FE81CF832784FD95
:103E40009387272B86070327C4FEBA972326F4FE01
:103E500029A8834754FE91CB032784FD8327C4FE02
:103E6000BA97938747292326F4FE834774FE91CBA4
:103E70000327C4FD8327C4FEBA97938747292326C7
:103E8000F4FE834784FE91CB032704FE8327C4FE00
:103E9000BA97938767222326F4FE8327C4FE3E85C4
:103EA000F250625421618280797106D622D40018C2
:103EB000272EA4FC8727C4FD530700F0D307F7A0E3
:103EC00099EF0725C4FDEF509162F96703A6879E1D
:103ED00083A6C79EEF40B11BAA876344F0008547C5
:103EE00011A0814713F7F70F1306801EF96793851A
:103EF00007963A85EF20F07A0727C4FDF96787A770
:103F0000079FD377F710D39717C02317F4FE9307B3
:103F100040042304F4FE8357E4FEA183C207C18357
:103F200093F7F70FA304F4FE8357E4FE93F7F70F1C
:103F30002305F4FE930784FE0D46BE851385C1BD9F
:103F4000EFE0EF860100B2502254456182800111FA
:103F500006CE22CC00109307C4FE85463E86CD4592
:103F60001385C1BDEFE0EFA18347C4FE9D8BB1CBAC
:103F70009307C4FE89463E86F9451385C1BDEFE02F
:103F80004FA08347C4FEC207C183A207139707014E
:103F900041832394E1808347D4FE13970701418333
:103FA00083D78180D98F1397070141832394E180C0
:103FB0000546AD451385C1BDEFE0EF890547238276
:103FC000E18E8347C4FEC18B85C39307C4FE894637
:103FD0003E86F9451385C1BDEFE0AF9A0546AD4574
:103FE0001385C1BDEFE02F870100F24062440561F7
:103FF0008280797106D622D40018A30304FEA30799
:1040000004FEA30604FE230704FE930704FE1946DC
:1040100081453E85EFC0CF9E930784FD1D468145B7
:104020003E85EFC0EF9D13075006930660062946B4
:10403000930590021385C1BDEFE0AFB8C1460546B8
:1040400085451305A008EFC01FDC03A741828967DF
:10405000938707F4B357F702930540063E85EFC0F8
:104060006FD1B70700209387C7009C4B1307004010
:10407000D8CB03A741828967938707F4B357F70228
:10408000930520033E85EFC0EFCEB707002093874E
:10409000C7009C4B1307004098CB03A74182896758
:1040A000938707F4B357F702930540063E85EFC0A8
:1040B0006FCC930590081385C1BDEFE0CF81AA872F
:1040C000A306F4FE8347D4FE93E7170093F7F70F98
:1040D0003E86930590081385C1BDEFD0DFF70146FA
:1040E000930580081385C1BDEFD0FFF60546930503
:1040F00000081385C1BDEFD01FF605469305F00FEC
:104100001385C1BDEFD03FF5014681451385C1BD83
:10411000EFD07FF4930774FE85463E869305100921
:104120001385C1BDEFE0EF85054681451385C1BD0F
:10413000EFD07FF201469305F00F1385C1BDEFD09C
:104140009FF10146930500081385C1BDEFD0BFF074
:10415000930500061385C1BDEFD0FFF7AA87A3061C
:10416000F4FE8347D4FE93E7270193F7F70F3E86CB
:10417000930500061385C1BDEFD0FFEDF96787A752
:10418000479F5385F720EFF03FD21306F00F854588
:104190001385C1BDEFD03FEC930784FD1387170053
:1041A000930784FDBA853E85EFF0CFBFAA878DC304
:1041B0008547A307F4FE9306F024F9671386079654
:1041C000F9679385C7990145EF2030546F006074FB
:1041D000930704FE99463E869305000B1385C1BDE7
:1041E000EFD03FFA05469305F00F1385C1BDEFD020
:1041F0009FE601469305F0041385C1BDEFD0BFE5EE
:104200001306C0029305E0041385C1BDEFD0BFE4DF
:1042100001469305F00F1385C1BDEFD0DFE3130610
:10422000400B9305600B1385C1BDEFD0DFE28347E0
:1042300094FD99C3B14711A08147230DF4FC2307D6
:1042400004FE55A08347A4FD0347E4FE6368F7001E
:104250000347B4FD834784FD6319F7048347E4FEF5
:104260008D8313F6F70FB287130704FFBA9783C73E
:1042700007FF1397870161878347E4FE9D8B85467F
:10428000B397F600E207E18793C7F7FFE207E187FC
:10429000F98F139787016187B2871377F70F93061A
:1042A00004FFB6972388E7FE15A88347E4FE8D83B5
:1042B00093F7F70F130704FFBA9783C707FF3E87EB
:1042C0008347E4FE9D8BB357F740858B81CB8347B3
:1042D000B4FD850793F7F70FA30DF4FC8347E4FEC5
:1042E00085072307F4FE0347E4FE9307F002E3FB90
:1042F000E7F4930700FB230CF4FC85472307F4FE47
:1043000005A08347E4FEFD17130704FFBA9783C790
:1043100007FFA30CF4FC8347E4FE85072307F4FEA4
:104320000347E4FE9947E3FEE7FC930784FD1D463F
:10433000BE851385C1BDEFD09FC705469305F00F1D
:104340001385C1BDEFD03FD1014681451385C1BD65
:10435000EFD07FD001469305F00F1385C1BDEFD09C
:104360009FCF0146A5451385C1BDEFD0DFCE0146E5
:10437000C1451385C1BDEFD01FCE0146C54513858C
:10438000C1BDEFD05FCD0546930540021385C1BD89
:10439000EFD07FCC1306F00F930550021385C1BDFB
:1043A000EFD07FCB0146930550071385C1BDEFD0F9
:1043B0009FCA05469305F00F1385C1BDEFD0BFC955
:1043C0001306C0029305E0041385C1BDEFD0BFC83A
:1043D0000146930580041385C1BDEFD0DFC71306E6
:1043E0000002930500031385C1BDEFD0DFC601466F
:1043F0009305F00F1385C1BDEFD0FFC5254693058A
:1044000000031385C1BDEFD01FC5014693054005CC
:104410001385C1BDEFD03FC411469305100313852A
:10442000C1BDEFD05FC30D46930520031385C1BD09
:10443000EFD07FC213063008930500041385C1BD79
:10444000EFD07FC113065002930560041385C1BDF0
:10445000EFD07FC00146930500061385C1BDEFD0A4
:104460009FBF0146930570021385C1BDEFD0BFBE4B
:104470001946930500051385C1BDEFD0DFBD014688
:10448000930510051385C1BDEFD0FFBC130660096D
:10449000930520051385C1BDEFD0FFBB21469305D1
:1044A00060051385C1BDEFD01FBB13060003930544
:1044B00070051385C1BDEFD01FBA014693051006E4
:1044C0001385C1BDEFD03FB9014693052006138582
:1044D000C1BDEFD05FB80146930540061385C1BD4D
:1044E000EFD07FB70146930550061385C1BDEFD0CD
:1044F0009FB61306000A930560061385C1BDEFD071
:104500009FB505469305F00F1385C1BDEFD0BFB42D
:1045100013062003930520021385C1BDEFD0BFB35E
:104520005146930570041385C1BDEFD0DFB2130669
:10453000F00F930590041385C1BDEFD0DFB10146A4
:104540009305A0041385C1BDEFD0FFB001469305CC
:10455000F00F1385C1BDEFD01FB029469305A0070A
:104560001385C1BDEFD03FAF01469305B00713855A
:10457000C1BDEFD05FAE130610029305800713850F
:10458000C1BDEFD05FAD05469305F00F1385C1BDEA
:10459000EFD07FAC13064003930530021385C1BDF5
:1045A000EFD07FAB0146930520041385C1BDEFD04A
:1045B0009FAA1306F00F930540041385C1BDEFD0E9
:1045C0009FA913066002930550041385C1BDEFD067
:1045D0009FA81546930560041385C1BDEFD0BFA702
:1045E00013060004930500041385C1BDEFD0BFA6D8
:1045F0001946B9451385C1BDEFD0FFA5694693059E
:1046000000021385C1BDEFD01FA51306000493055A
:1046100030041385C1BDEFD01FA401469305F00FF0
:104620001385C1BDEFD03FA30D469305400313850D
:10463000C1BDEFD05FA2130640049305500313855C
:10464000C1BDEFD05FA105469305F00F1385C1BD35
:10465000EFD07FA01146930510031385C1BDEFD0A5
:104660009F9F25469305B0041385C1BDEFD0BF9E23
:1046700015469305C0041385C1BDEFD0DF9D1146DB
:104680009305D0041385C1BDEFD0FF9C014693056F
:10469000F00F1385C1BDEFD01F9C01469305400468
:1046A0001385C1BDEFD03F9B130600029305500454
:1046B0001385C1BDEFD03F9A214693057004138541
:1046C000C1BDEFD05F991306800293058004138566
:1046D000C1BDEFD05F980146930570061385C1BD3B
:1046E000EFD07F971146930500071385C1BDEFD02A
:1046F0009F960546930510071385C1BDEFD0BF9562
:104700001306E00F930520071385C1BDEFD0BF94BA
:104710000146930560071385C1BDEFD0DF930146C5
:10472000930570071385C1BDEFD0FF920546930531
:10473000F00F1385C1BDEFD01F920546B545138517
:10474000C1BDEFD05F9101469305F00F1385C1BD48
:10475000EFD07F900546930500081385C1BDEFD0CB
:104760009F8F1306800F85451385C1BDEFD0BF8E87
:1047700005469305F00F1385C1BDEFD0DF8D0546CB
:104780009305E0081385C1BDEFD0FF8C0546814538
:104790001385C1BDEFD03F8C01469305F00F138503
:1047A000C1BDEFD05F8B0146930500081385C1BDE5
:1047B000EFD07F8A1146A9451385C1BDEFD0BF89CF
:1047C000930540081385C1BDEFD0FF90AA87A306CB
:1047D000F4FE8347D4FEBD9B93F7F70F3E86930507
:1047E00040081385C1BDEFD01F870546AD45138531
:1047F000C1BDEFD05F86EFF0CFDF2324A4FE130608
:10480000800E85451385C1BDEFD0FF84032584FE4E
:10481000EFF0CFC7054685451385C1BDEFD0BF83F7
:1048200013050004EFF0AFB9AA8785C38547A30736
:10483000F4FE9306802DF96713860796F967938532
:10484000479B0145EF20606CE9A00946854513852B
:10485000C1BDEFD05F800145EFF06FB6AA8785C379
:104860008547A307F4FE9306F02DF9671386079694
:10487000F9679385479B0145EF20206959A81306E6
:10488000800E85451385C1BDEFD0EFFC03A74182A3
:104890008967938707F4B357F702930540063E856F
:1048A000EFB05FCD0546930500081385C1BDEFD07D
:1048B0008FFA05469305F00F1385C1BDEFD0AFF910
:1048C000014681451385C1BDEFD0EFF8834774FEE3
:1048D0003E86930510091385C1BDEFD0CFF705467D
:1048E00081451385C1BDEFD00FF701469305F00F49
:1048F0001385C1BDEFD02FF601469305000813853F
:10490000C1BDEFD04FF5094681451385C1BDEFD03C
:104910008FF48347F4FE3E85B25022544561828075
:10492000411106C622C4000883A7C18E0547638BC8
:10493000E7006386070C0947638DE7000D47638F27
:10494000E702D9A083A7818E1387170023A4E18EE5
:1049500065A883A7818E1387170023A4E18E03A780
:10496000818EA54763FFE708B70700209387C7003C
:104970009C4B1167D8CB23A4018E61A003A7018FA4
:1049800085476312F7081305F008EFC0AFC3AA8785
:10499000B9CF1945EFE0AFA8AA873E8783A7818EDC
:1049A0001D8F9307600963F0E7061945EFE00FB725
:1049B00083A7818ED3F717D05385F720EF5021338B
:1049C000F96703A6879F83A6C79FEF30B177AA87B1
:1049D0002E883E85C285EF50411AAA87139707019A
:1049E00041832395E180094723A8E18E29A8194531
:1049F000EFE0EFA2AA873E8723A4E18E29A0010061
:104A000021A0010011A001000100B2402244410197
:104A10008280411106C622C4000883A7C18E0947BF
:104A2000637CF7000D47639AE7001945EFE00FAF8D
:104A3000054723A8E18E11A001000100B2402244E5
:104A400041018280011106CE22CC001083C7518F14
:104A5000638A070E09A8930734FE0546BE851385B1
:104A6000C1BEEF20B013930734FEBE851D45EFE0B5
:104A70000FD1AA87EDF3034734FEA9476314F70C5F
:104A800099472322F4FE130744FE930784FE8546CC
:104A90003A86BE851385C1BEEF209040930784FE01
:104AA000138737000D46F967938507A03A85EF60B5
:104AB0004151AA879DEB03A7C18F8947630DF70674
:104AC000054723AEE18E1385C1BEEF206077AA872C
:104AD0002322F4FE930744FE81463E86938581C8D7
:104AE0001385C1BEEF20D03BB9A0930784FE138786
:104AF00037000D46F967938547A03A85EF60614C12
:104B0000AA8795EB03A7818F89476306F7020547BC
:104B100023ACE18E1385C1BEEF208072AA872322C9
:104B2000F4FE930744FE81463E86938581C013853B
:104B3000C1BEEF20F0361385C1BEEF20606005478F
:104B4000238AE18E0100F2406244056182800111F6
:104B500006CE22CC0010AA872E87A307F4FEBA87C0
:104B60002307F4FEB70700209387C7009C4713076D
:104B70000040D8CB0347E4FE8347F4FE3A86BE8567
:104B80000945EFD03FA0B70700209387C7009C4797
:104B90001307004098CB0100F24062440561828017
:104BA000011106CE22CC0010AA872324B4FE2322B2
:104BB000C4FEA307F4FEB70700209387C7009C47F5
:104BC00013070040D8CB8347F4FE832644FE032618
:104BD00084FEBE850945EFD03FA7B7070020938725
:104BE000C7009C471307004098CB0100F240624485
:104BF00005618280797106D622D40018AA87A30F96
:104C0000F4FCB70700209387C7009C4713070040B8
:104C1000D8CB8347F4FD93E707F893F7F70F130713
:104C2000C4FE89463A86BE850945EFD09FADB707D9
:104C300000209387C7009C471307004098CB834709
:104C4000D4FE3E85B250225445618280797106D6E9
:104C500022D40018AA87232CB4FC232AC4FCA30F57
:104C6000F4FCB70700209387C7009C471307004058
:104C7000D8CB8347F4FD93E707F813F7F70F8327A3
:104C800044FD93861700930744FE3E86BA85094586
:104C9000EFD03FA7B70700209387C7009C471307B3
:104CA000004098CB232604FE3DA08327C4FE138733
:104CB0001700832784FD93861700232CD4FC9306CA
:104CC00004FF3697034747FF2380E7008327C4FE8E
:104CD00085072326F4FE8327C4FE032744FDE3E66D
:104CE000E7FC0100B250225445618280011106CEDA
:104CF00022CC0010A30504FEA30704FE231604FE25
:104D00008357C4FE138717002316E4FE1307F00F22
:104D10006376F7008547A307F4FE05A80145EFF089
:104D20007FEDAA87A305F4FE03A7418289679387D5
:104D300007F4B357F70285453E85EFB0BF830347BD
:104D4000B4FE93074002E31DF7FA8347F4FE3E8565
:104D5000F240624405618280011106CE22CC00102F
:104D6000930784FE1946BE853145EFF03FEE834739
:104D700094FEA207139707014187834784FEC20769
:104D8000C187D98F1397070141872393E190834708
:104D9000B4FEA2071397070141878347A4FEC20709
:104DA000C187D98F1397070141872394E1908347E7
:104DB000D4FEA2071397070141878347C4FEC207A9
:104DC000C187D98F1397070141872395E19001008F
:104DD000F240624405618280011106CE22CC0010AF
:104DE000930784FE1946BE854945EFF03FE68347A9
:104DF00094FEA207139707014187834784FEC207E9
:104E0000C187D98F1397070141872390E19083478A
:104E1000B4FEA2071397070141878347A4FEC20788
:104E2000C187D98F1397070141872391E190834769
:104E3000D4FEA2071397070141878347C4FEC20728
:104E4000C187D98F1397070141872392E190010011
:104E5000F240624405618280011106CE22CC00102E
:104E6000A30704FE03A741828967938707F4B3571A
:104E7000F702D1453E85EFB0EFEF1308F00F8967D9
:104E8000938747020967130757028966938636029C
:104E9000379698001306066881450945EFD0BF9400
:104EA000C146054685451305A004EFB0DFF5014571
:104EB000EFF05FD4EFF09FE3AA8785C3930600115C
:104EC000F967138607AFF967938507B30145EF20AC
:104ED000C0038547A307F4FE7DA881451305C007DD
:104EE000EFF0FFC603A741828967938707F4B357A2
:104EF000F70285453E85EFB0EFE781451305900544
:104F0000EFF0FFC40966B7C70200938507F61305E3
:104F1000E005EFF0FFC8854513059005EFF03FC3AE
:104F200003A741828967938707F4B357F702D145F6
:104F30003E85EFB02FE413051002EFF0BFCBAA8738
:104F400085E39306F011F967138607AFF967938538
:104F5000C7B40145EF10707B8547A307F4FE25A871
:104F6000B9451305D007EFF09FBE9305700A1305EE
:104F70000004EFF0DFBD9305900A13052004EFF065
:104F80001FBD894513051004EFF07FBC8145130553
:104F90003004EFF0DFBB8347F4FE3E85F24062440D
:104FA00005618280397106DE22DC80002326A4FCA4
:104FB0008547A307F4FE231604FE232404FE232EB4
:104FC00004FC83D741913E87930700236316F700C3
:104FD000A5472324F4FE29A0A1472324F4FE0100C1
:104FE00049A0930750FA2300F4FE832784FE8A0722
:104FF0000327C4FCBA978397070093F7F70FA30022
:10500000F4FE832784FE8A070327C4FCBA9783979C
:1050100027002313F4FE835764FEA183C207C183D4
:1050200093F7F70F2301F4FE835764FE93F7F70F0E
:10503000A301F4FE930704FE1146BE851145EFD08F
:105040009FDF03A741828967938707F4B357F7026D
:1050500089453E85EFB00FD2832784FEFD172324B8
:10506000F4FE032784FE9307E00FE3FCE7F61385C5
:1050700001BCEF20E01C2A87894763FFE7028D47C8
:10508000232EF4FC1307C4FD930704FE81463A86E1
:10509000BE85138501BCEF20A060034714FE930773
:1050A000F00F6308F700034724FE9307F00F631522
:1050B000F700A30704FE35A003A741828967938701
:1050C00007F4B357F70285453E85EFB0AFCA835763
:1050D000C4FE138717002316E4FE1307F007E378D6
:1050E000F7F88347F4FE3E85F250625421618280D6
:1050F000397106DE22DC80002326A4FCA30704FE0F
:10510000231604FE232404FE232E04FC83D741919E
:105110003E87930700236316F700A5472324F4FE78
:1051200029A0A1472324F4FE0100832784FEFD1754
:105130002324F4FE29AA03D741919307F02263EDBB
:10514000E700832784FE8A070327C4FCBA970397E6
:105150000700A5476307F70E930750FA2300F4FEF4
:10516000C557A300F4FE832784FE8A070327C4FCE7
:10517000BA97839707002313F4FE835764FEA18335
:10518000C207C18393F7F70F2301F4FE835764FE30
:1051900093F7F70FA301F4FE930704FE1146BE85B3
:1051A0001145EFD05FC9231604FE138501BCEF2023
:1051B00020092A87894763F7E7048D47232EF4FCEB
:1051C0001307C4FD930704FE81463A86BE85138506
:1051D00001BCEF20E04C834714FEA2079396070121
:1051E000C186834724FE139707014187832784FEE6
:1051F0008A070326C4FCB297558F42074187239143
:10520000E70035A003A741828967938707F4B35766
:10521000F70285453E85EFB0EFB58357C4FE13878F
:1052200017002316E4FE1307F007E370F7F803579F
:10523000C4FE9307000863F7E7008547A307F4FE61
:1052400019A80100832784FEFD172324F4FE832779
:1052500084FEE39207EE8347F4FE3E85F2506254EB
:1052600021618280011106CE22CC0010A30704FE2A
:105270009307F4FEBE851145EFD07FD00347F4FEBF
:105280009307500A6316F700138501BCEF10506BAB
:105290008347F4FEBE85138501BCEF10B07E01008C
:1052A000F240624405618280411122C60008054730
:1052B0002386E1900100324441018280011106CE33
:1052C00022CC0010231704FE231604FE232004FE24
:1052D000930750FA2302F4FEC557A302F4FE930786
:1052E000200F2315F4FE8357A4FEA183C207C183B8
:1052F00093F7F70F2303F4FE8357A4FE93F7F70FFA
:10530000A303F4FE930744FE1146BE851145EFD07A
:105310009FB2138501BCEF10B0722A87894763F0F2
:10532000E7048D472320F4FE130704FE930744FE91
:1053300081463A86BE85138501BCEF2060368347DF
:1053400054FEA207139707014187834764FEC207F3
:10535000C187D98FC207C1872316F4FE35A003A7E2
:1053600041828967938707F4B357F70285453E85E5
:10537000EFB04FA08357E4FE138717002317E4FE16
:105380001307F007E377F7F88357C4FE3E85F24032
:10539000624405618280397106DE22DC8000A30749
:1053A00004FE054723A8E1909307C4FD1307C0043A
:1053B000930620061306401F81453E85EFD06F807F
:1053C00003A741828967938707F4B357F7029305D0
:1053D000800C3E85EFB00F9A1307C4FDB70700207D
:1053E000938507023A85EF10F134AA87638B070C87
:1053F00023A8019091679386270691671386C704B7
:105400008967938507581145EFD05FBD85451145E4
:10541000EFD0BFAE03A741828967938707F4B357E4
:10542000F7029305800C3E85EFB0CF94B75700008C
:105430001386872AB7570000938547260D45EF004E
:10544000707EEFE00F94EFF07FE7AA873E87239A04
:10545000E190B707002013850702EFF0BFB4AA87D9
:105460008DC79306701BF9671386C7B6F9679385D6
:1054700007BB0145EF107029014681450145EF004A
:10548000707A8547A307F4FE2DA8B707002013857F
:105490008704EFF0FFC5AA878DC79306301CF96714
:1054A0001386C7B6F9679385C7BC0145EF10F02591
:1054B000014681450145EF00F0768547A307F4FEDC
:1054C0000100B75700001386872AB757000093855D
:1054D00047260D45EF00107591473EC495473EC2E3
:1054E00099473EC093089002130880029307600218
:1054F0001307B0049306900413068004A9452545BC
:10550000EFB0EF9085468D67138687368145B717D4
:10551000002013858781EFB04FA08347F4FE3E85BE
:10552000F250625421618280011106CE22CC00101B
:10553000AA87A307F4FEB70700209387C700DC47BC
:10554000414798CBB70700209387C700DC47414706
:10555000D8CBB70700209387C700DC4713070008A4
:10556000D8CB8347F4FEBE850545EFC0BFF0B70733
:1055700000209387C700DC47414798CBB70700203E
:105580009387C700DC471307000898CBB7070020B4
:105590009387C700DC474147D8CB0100F240624403
:1055A00005618280011106CE22CC0010AA873687C1
:1055B0002317F4FEAE872316F4FEB2872315F4FEFC
:1055C000BA872314F4FE83C74181C207C1830357FE
:1055D000E4FEB337F70093F7F70F3E871306E008B2
:1055E000F967938587BE3A85EF10B00B83C7518169
:1055F000C207C1830357C4FEB337F70093F7F70F11
:105600003E871306F008F967938587BE3A85EF1049
:10561000500983C74181C207C1830357A4FEB33732
:10562000F70093F7F70F3E8713060009F967938594
:1056300087BE3A85EF10F00683C75181C207C18348
:10564000035784FEB337F70093F7F70F3E8713062F
:105650001009F967938587BE3A85EF10900483A7F8
:10566000819191C703A7819185476317F7081305B7
:10567000A002EFF07FEB81450545EFC0BFDF835708
:10568000E4FE93F7F70F890793F7F70FBE850545FB
:10569000EFC05FDE81450545EFC0DFDD8357A4FE27
:1056A00093F7F70F890793F7F70FBE850545EFC00E
:1056B0007FDC1305B002EFF03FE781450545EFC001
:1056C0007FDB8357C4FE93F7F70F850793F7F70F38
:1056D000BE850545EFC01FDA81450545EFC09FD95E
:1056E000835784FE93F7F70F850793F7F70FBE856F
:1056F0000545EFC03FD869A01305A002EFF0DFE237
:1057000081450545EFC01FD78357E4FE93F7F70F98
:10571000850793F7F70FBE850545EFC0BFD58145D7
:105720000545EFC03FD58357A4FE93F7F70F8507D4
:1057300093F7F70FBE850545EFC0DFD31305B00221
:10574000EFF09FDE81450545EFC0DFD28357C4FEF1
:1057500093F7F70F890793F7F70FBE850545EFC05D
:105760007FD181450545EFC0FFD0835784FE93F775
:10577000F70F890793F7F70FBE850545EFC09FCF59
:105780001305C002EFF05FDA0100F24062440561E8
:105790008280797106D622D400189307C4FD3E8515
:1057A000EF10807B8547231EF4FC83C74181C2072D
:1057B000C183231FF4FC83C75181C207C183231017
:1057C000F4FE83A701810547638AE70099EF9947B3
:1057D0002301F4FEA147A301F4FE09A8A147230178
:1057E000F4FEC147A301F4FE11A00100B767000059
:1057F000938707CF2324F4FEB76700009387878140
:105800002326F4FE9307C4FD3E85EF10807A010045
:10581000B250225445618280011106CE22CC001084
:1058200083C741813E8783C75181B307F70223268F
:10583000F4FEB70700209387C700DC474147D8CB69
:1058400083C74181C207C183FD17139707014183B5
:1058500083C75181C207C183FD17C207C183BE86BA
:105860003A8681450145EFF0FFD321A883D7E18037
:10587000BE850545EFC0BFC68327C4FEFD1723269E
:10588000F4FE8327C4FEFDF3B70700209387C7000B
:10589000DC47414798CB0100F240624405618280B9
:1058A000797106D622D40018AA87231FF4FC83C777
:1058B00041813E8783C75181B307F7022326F4FE57
:1058C000B70700209387C700DC474147D8CB83C781
:1058D0004181C207C183FD1713970701418383C725
:1058E0005181C207C183FD17C207C183BE863A86B4
:1058F00081450145EFF01FCB21A88357E4FDBE850C
:105900000545EFC0DFBD8327C4FEFD172326F4FE47
:105910008327C4FEFDF3B70700209387C700DC4749
:10592000414798CB0100B250225445618280011159
:1059300022CE00102326A4FE0327C4FE23ACE19050
:105940000327C4FE854763EBE700130700F8238AAB
:10595000E180130700FAA38AE18009A8130700FA7F
:10596000238AE180130700F8A38AE18001007244D2
:1059700005618280011122CE0010AA872E8723178D
:10598000F4FEBA872316F4FE0357E4FE2396E18063
:105990000357C4FE2397E1800100724405618280B1
:1059A000011106CE22CC0010AA87AE8632872317BB
:1059B000F4FEB6872316F4FEBA872315F4FE83C7D8
:1059C0004181C207C1830357E4FEB337F70093F761
:1059D000F70F3E871306B013F967938587BE3A85A4
:1059E000EF10204C83C75181C207C1830357C4FE07
:1059F000B337F70093F7F70F3E871306C013F96725
:105A0000938587BE3A85EF10C049B707002093877A
:105A1000C700DC474147D8CB8356C4FE0356E4FE9B
:105A20000357C4FE8357E4FEBA853E85EFF09FB767
:105A30008357A4FEBE850545EFC07FAAB7070020A7
:105A40009387C700DC47414798CB0100F24062448E
:105A500005618280797106D622D40018AA87AE86A5
:105A60003287231FF4FCB687231EF4FCBA87A30DEC
:105A7000F4FC83C74181C207C1830357E4FDB337F8
:105A8000F70093F7F70F3E871306C018F967938561
:105A900087BE3A85EF10E04083C75181C207C183BA
:105AA0000357C4FDB337F70093F7F70F3E8713068C
:105AB000D018F967938587BE3A85EF10803EB70707
:105AC00000209387C700DC474147D8CB83A70181DB
:105AD0000547638BE70C63900720A30704FE7DA8AE
